:100BE90053797374656D496E697469616C0D0A0096
:100AE300120BBC120BD37BFF7A0B79E9120B771233
:100AF3000B2EC3E50C940FE50B940050047D198075
:100B03001430B70920B6067D177F03800A20B70C7F
:100B130030B6097D177F02120A8C80D320B7D0200C
:0B0B2300B6CD7D17E4FF120A8C80C4E1
:100BBC0075985075CADC75CCDC75CBFF75CDFF759F
:070BCC00C834D2ACD2AF2205
:080C1F002000FDD2008F992294
:100B77008B088A09890AAB08AA09A90A120A6560BB
:100B870013050AE50A7002050914F9120A65FF122E
:050B97000C1F80E222AA
:03002300020BF9D4
:100BF900309805C29885990D309904C299C200327E
:0A0C1500EF1F70011E144E70F7224D
:100B9C00E4FDFCC3ED9FEC9E5015E4FBFA0BBB008F
:0F0BAC00010AEB64784A70F50DBD00010C80E47E
:010BBB002217
:100A8C008D08EF14601314601614601D1460242478
:100A9C00047020C292D291800AD292C291800ED25E
:100AAC0092C291C295D2948012C292D291D295C226
:100ABC00948008D292D291D295D294AF087E001233
:100ACC000B9CD292D291D295D294C374199508FFF3
:070ADC00E49400FE020B9CF4
:100BD300C2A1C2A05389F0438901E4F58CF58AD2FE
:060BE300AFD2A9C28C2272
:100B2E00D2A17F147E00120C15C2A130A0FDE4F5F7
:100B3E008CF58AD28C20A0FDAF8CEFFEAD8A7C00A6
:100B4E00E42DFDEC3EFCE41209AB7B9A7A9979D93F
:100B5E00783F120800E4FBFA79C8784212090912AC
:090B6E0009E48E0B8F0CC28C22ED
:10080000EC4D6011E8497017ED33EC3304600DE4F2
:10081000FCFFFEFD22E933E8330470F8020A5012AF
:100820000A1B58046009E4CC2481500628500902B0
:100830000A5A284003020A57C0E0EB4A7044B980C4
:1008400006D0E0FB020A46EF4E701CBD8008EBFFAD
:10085000EAFEE9FD80EBE98DF0A4FEE5F00208E98F
:10086000E9CDF9EAFEEBFFEF89F0A4FCE5F0CE89D3
:10087000F0A42EFFE435F0CD89F0A42DFEE435F090
:100880008067EF4E7005BD80D780C3EF8BF0A4ACBE
:10089000F0EE8BF0A42CFCE435F0F8EF8AF0A42CF9
:1008A000E5F038FCE433CB8DF0A42CFCE5F03BF80C
:1008B000EE8AF0A42CFCE5F038F8E433CF89F0A4FC
:1008C0002CFCE5F038CF3400CE89F0A42FFFE5F002
:1008D0003EFEE433C98DF0A42EFEE5F039CD8AF05A
:1008E000A42FFFE5F03EFEE43DFD33D0E0FB5007D2
:1008F0000BBB000F020A5AEC2CFCEF33FFEE33FE69
:06090000ED33FD020A3296
:10090600020A5AEC5D046005E859047003020A50B5
:10091600120A1B580460F6EC4860F2EC7004FDFE07
:10092600FF22C860DB2481C85009C39860025006C4
:10093600020A579850CAF582E9294B4A7005AB82DC
:10094600020A4675F0007C1A7880C3EF9BEE9AED9A
:1009560099400DC3EF9BFFEE9AFEED99FDE842F03C
:10096600DC23ACF0D0E0FFD0E0FED0E0FDAB82208F
:10097600E7101BEB60BAEC2CFCEF33FFEE33FEED19
:1009860033FD020A32E803F830E705C0F075F000DF
:10099600EF2FFFEE33FEED33FD40B830E7C280AAFD
:1009A60075F020800E75F010800575F0087D007ECC
:1009B600007F003392D530D503120A7EEC33401007
:1009C600EF33FFEE33FEED33FDEC33FCD5F0ED22D5
:0E09D600E5F0247EA2D513CC92E7CDCEFF2211
:1009E400EDD2E7CD33EC3392D524814006E4FFFE0B
:1009F400FDFC22FCE4CFCECDCC24E0501174FF806A
:100A0400EDC3CC13CCCD13CDCE13CECF13CF047006
:070A1400F030D5DE020A7E7E
:100A1B00E9D2E7C933E833F892D5EDD2E7CD33EC21
:070A2B0033FC5002B2D5229A
:100A3200EC30E7100FBF000C0EBE00080DBD000425
:100A42000BEB6014A2D5EB13FCED92E7FD2274FFD1
:100A5200FCFDFEFF22E480F8A2D574FF13FC7D802A
:030A6200E480EF3E
:03000000020C09E6
:0C0C0900787FE4F6D8FD758120020AE334
:100A6500BB010689828A83E0225002E722BBFE028F
:090A7500E32289828A83E49322C2
:0E0A7E00C3E49FFFE49EFEE49DFDE49CFC2289
:00000001FF
